{
  "contractName": "logFileStorage",
  "abi": [
    {
      "inputs": [
        {
          "internalType": "uint256",
          "name": "",
          "type": "uint256"
        }
      ],
      "name": "DATA",
      "outputs": [
        {
          "internalType": "string",
          "name": "ipfsHash",
          "type": "string"
        },
        {
          "internalType": "uint256",
          "name": "timestamp",
          "type": "uint256"
        },
        {
          "internalType": "string",
          "name": "campLocation",
          "type": "string"
        }
      ],
      "stateMutability": "view",
      "type": "function",
      "constant": true
    },
    {
      "inputs": [
        {
          "internalType": "string",
          "name": "ip",
          "type": "string"
        },
        {
          "internalType": "string",
          "name": "camp",
          "type": "string"
        }
      ],
      "name": "setter",
      "outputs": [],
      "stateMutability": "nonpayable",
      "type": "function"
    },
    {
      "inputs": [],
      "name": "getter",
      "outputs": [
        {
          "components": [
            {
              "internalType": "string",
              "name": "ipfsHash",
              "type": "string"
            },
            {
              "internalType": "uint256",
              "name": "timestamp",
              "type": "uint256"
            },
            {
              "internalType": "string",
              "name": "campLocation",
              "type": "string"
            }
          ],
          "internalType": "struct logFileStorage.data[]",
          "name": "",
          "type": "tuple[]"
        }
      ],
      "stateMutability": "view",
      "type": "function",
      "constant": true
    }
  ],
  "bytecode": "0x608060405234801561001057600080fd5b50610bc1806100206000396000f3fe608060405234801561001057600080fd5b50600436106100415760003560e01c8063993a04b714610046578063a089d18914610064578063daaad33b14610080575b600080fd5b61004e6100b2565b60405161005b91906105d3565b60405180910390f35b61007e6004803603810190610079919061073e565b61023f565b005b61009a600480360381019061009591906107e2565b6102c7565b6040516100a993929190610868565b60405180910390f35b60606000805480602002602001604051908101604052809291908181526020016000905b828210156102365783829060005260206000209060030201604051806060016040529081600082018054610109906108dc565b80601f0160208091040260200160405190810160405280929190818152602001828054610135906108dc565b80156101825780601f1061015757610100808354040283529160200191610182565b820191906000526020600020905b81548152906001019060200180831161016557829003601f168201915b50505050508152602001600182015481526020016002820180546101a5906108dc565b80601f01602080910402602001604051908101604052809291908181526020018280546101d1906108dc565b801561021e5780601f106101f35761010080835404028352916020019161021e565b820191906000526020600020905b81548152906001019060200180831161020157829003601f168201915b505050505081525050815260200190600101906100d6565b50505050905090565b600060405180606001604052808481526020014281526020018381525090506000819080600181540180825580915050600190039060005260206000209060030201600090919091909150600082015181600001908161029f9190610ab9565b506020820151816001015560408201518160020190816102bf9190610ab9565b505050505050565b600081815481106102d757600080fd5b90600052602060002090600302016000915090508060000180546102fa906108dc565b80601f0160208091040260200160405190810160405280929190818152602001828054610326906108dc565b80156103735780601f1061034857610100808354040283529160200191610373565b820191906000526020600020905b81548152906001019060200180831161035657829003601f168201915b50505050509080600101549080600201805461038e906108dc565b80601f01602080910402602001604051908101604052809291908181526020018280546103ba906108dc565b80156104075780601f106103dc57610100808354040283529160200191610407565b820191906000526020600020905b8154815290600101906020018083116103ea57829003601f168201915b5050505050905083565b600081519050919050565b600082825260208201905092915050565b6000819050602082019050919050565b600081519050919050565b600082825260208201905092915050565b60005b8381101561047757808201518184015260208101905061045c565b60008484015250505050565b6000601f19601f8301169050919050565b600061049f8261043d565b6104a98185610448565b93506104b9818560208601610459565b6104c281610483565b840191505092915050565b6000819050919050565b6104e0816104cd565b82525050565b600060608301600083015184820360008601526105038282610494565b915050602083015161051860208601826104d7565b50604083015184820360408601526105308282610494565b9150508091505092915050565b600061054983836104e6565b905092915050565b6000602082019050919050565b600061056982610411565b610573818561041c565b9350836020820285016105858561042d565b8060005b858110156105c157848403895281516105a2858261053d565b94506105ad83610551565b925060208a01995050600181019050610589565b50829750879550505050505092915050565b600060208201905081810360008301526105ed818461055e565b905092915050565b6000604051905090565b600080fd5b600080fd5b600080fd5b600080fd5b7f4e487b7100000000000000000000000000000000000000000000000000000000600052604160045260246000fd5b61064b82610483565b810181811067ffffffffffffffff8211171561066a57610669610613565b5b80604052505050565b600061067d6105f5565b90506106898282610642565b919050565b600067ffffffffffffffff8211156106a9576106a8610613565b5b6106b282610483565b9050602081019050919050565b82818337600083830152505050565b60006106e16106dc8461068e565b610673565b9050828152602081018484840111156106fd576106fc61060e565b5b6107088482856106bf565b509392505050565b600082601f83011261072557610724610609565b5b81356107358482602086016106ce565b91505092915050565b60008060408385031215610755576107546105ff565b5b600083013567ffffffffffffffff81111561077357610772610604565b5b61077f85828601610710565b925050602083013567ffffffffffffffff8111156107a05761079f610604565b5b6107ac85828601610710565b9150509250929050565b6107bf816104cd565b81146107ca57600080fd5b50565b6000813590506107dc816107b6565b92915050565b6000602082840312156107f8576107f76105ff565b5b6000610806848285016107cd565b91505092915050565b600082825260208201905092915050565b600061082b8261043d565b610835818561080f565b9350610845818560208601610459565b61084e81610483565b840191505092915050565b610862816104cd565b82525050565b600060608201905081810360008301526108828186610820565b90506108916020830185610859565b81810360408301526108a38184610820565b9050949350505050565b7f4e487b7100000000000000000000000000000000000000000000000000000000600052602260045260246000fd5b600060028204905060018216806108f457607f821691505b602082108103610907576109066108ad565b5b50919050565b60008190508160005260206000209050919050565b60006020601f8301049050919050565b600082821b905092915050565b60006008830261096f7fffffffffffffffffffffffffffffffffffffffffffffffffffffffffffffffff82610932565b6109798683610932565b95508019841693508086168417925050509392505050565b6000819050919050565b60006109b66109b16109ac846104cd565b610991565b6104cd565b9050919050565b6000819050919050565b6109d08361099b565b6109e46109dc826109bd565b84845461093f565b825550505050565b600090565b6109f96109ec565b610a048184846109c7565b505050565b5b81811015610a2857610a1d6000826109f1565b600181019050610a0a565b5050565b601f821115610a6d57610a3e8161090d565b610a4784610922565b81016020851015610a56578190505b610a6a610a6285610922565b830182610a09565b50505b505050565b600082821c905092915050565b6000610a9060001984600802610a72565b1980831691505092915050565b6000610aa98383610a7f565b9150826002028217905092915050565b610ac28261043d565b67ffffffffffffffff811115610adb57610ada610613565b5b610ae582546108dc565b610af0828285610a2c565b600060209050601f831160018114610b235760008415610b11578287015190505b610b1b8582610a9d565b865550610b83565b601f198416610b318661090d565b60005b82811015610b5957848901518255600182019150602085019450602081019050610b34565b86831015610b765784890151610b72601f891682610a7f565b8355505b6001600288020188555050505b50505050505056fea26469706673582212209a160d4d801ca7e0adb061316600a0ccfcc869cd4e5aaee6a2e8250c319667c964736f6c63430008110033",
  "immutableReferences": {},
  "source": "// SPDX-License-Identifier: GPL-3.0\n\npragma solidity ^0.8.0;\n\n\ncontract logFileStorage{\n    struct data{\n        string ipfsHash;\n        uint timestamp;\n        string campLocation;\n    }\n    data[] public DATA;\n    function setter(string memory ip,string memory camp)public {\n        data memory newData = data({\n            ipfsHash: ip,\n            timestamp: block.timestamp,\n            campLocation: camp\n        });\n        DATA.push(newData);\n\n    }\n    function getter()public view returns(data[] memory){\n        return DATA;\n    }\n}",
  "sourcePath": "/Volumes/Data/Developer/sih-2023-it-log/backend/contracts/LogFileStorage.sol",
  "compiler": {
    "name": "solc",
    "version": "0.8.17+commit.8df45f5f.Emscripten.clang"
  },
  "schemaVersion": "3.4.16",
  "updatedAt": "2023-12-20T11:47:29.409Z",
  "networkType": "ethereum",
  "devdoc": {
    "kind": "dev",
    "methods": {},
    "version": 1
  },
  "userdoc": {
    "kind": "user",
    "methods": {},
    "version": 1
  }
}